{
  "address": "0x106aCAEfe722A39eB7C57382a446B5c105663670",
  "abi": [
    {
      "inputs": [],
      "stateMutability": "nonpayable",
      "type": "constructor"
    },
    {
      "anonymous": false,
      "inputs": [
        {
          "indexed": true,
          "internalType": "address",
          "name": "owner",
          "type": "address"
        },
        {
          "indexed": true,
          "internalType": "address",
          "name": "approved",
          "type": "address"
        },
        {
          "indexed": true,
          "internalType": "uint256",
          "name": "tokenId",
          "type": "uint256"
        }
      ],
      "name": "Approval",
      "type": "event"
    },
    {
      "anonymous": false,
      "inputs": [
        {
          "indexed": true,
          "internalType": "address",
          "name": "owner",
          "type": "address"
        },
        {
          "indexed": true,
          "internalType": "address",
          "name": "operator",
          "type": "address"
        },
        {
          "indexed": false,
          "internalType": "bool",
          "name": "approved",
          "type": "bool"
        }
      ],
      "name": "ApprovalForAll",
      "type": "event"
    },
    {
      "anonymous": false,
      "inputs": [
        {
          "indexed": false,
          "internalType": "uint256",
          "name": "_fromTokenId",
          "type": "uint256"
        },
        {
          "indexed": false,
          "internalType": "uint256",
          "name": "_toTokenId",
          "type": "uint256"
        }
      ],
      "name": "BatchMetadataUpdate",
      "type": "event"
    },
    {
      "anonymous": false,
      "inputs": [
        {
          "indexed": false,
          "internalType": "uint256",
          "name": "_tokenId",
          "type": "uint256"
        }
      ],
      "name": "MetadataUpdate",
      "type": "event"
    },
    {
      "anonymous": false,
      "inputs": [
        {
          "indexed": true,
          "internalType": "uint256",
          "name": "tokenId",
          "type": "uint256"
        },
        {
          "indexed": false,
          "internalType": "address",
          "name": "owner",
          "type": "address"
        },
        {
          "indexed": false,
          "internalType": "address",
          "name": "seller",
          "type": "address"
        },
        {
          "indexed": false,
          "internalType": "uint256",
          "name": "price",
          "type": "uint256"
        },
        {
          "indexed": false,
          "internalType": "bool",
          "name": "currentlyListed",
          "type": "bool"
        }
      ],
      "name": "TokenListedSuccess",
      "type": "event"
    },
    {
      "anonymous": false,
      "inputs": [
        {
          "indexed": true,
          "internalType": "address",
          "name": "from",
          "type": "address"
        },
        {
          "indexed": true,
          "internalType": "address",
          "name": "to",
          "type": "address"
        },
        {
          "indexed": true,
          "internalType": "uint256",
          "name": "tokenId",
          "type": "uint256"
        }
      ],
      "name": "Transfer",
      "type": "event"
    },
    {
      "inputs": [
        {
          "internalType": "address",
          "name": "to",
          "type": "address"
        },
        {
          "internalType": "uint256",
          "name": "tokenId",
          "type": "uint256"
        }
      ],
      "name": "approve",
      "outputs": [],
      "stateMutability": "nonpayable",
      "type": "function"
    },
    {
      "inputs": [
        {
          "internalType": "address",
          "name": "owner",
          "type": "address"
        }
      ],
      "name": "balanceOf",
      "outputs": [
        {
          "internalType": "uint256",
          "name": "",
          "type": "uint256"
        }
      ],
      "stateMutability": "view",
      "type": "function"
    },
    {
      "inputs": [
        {
          "internalType": "string",
          "name": "tokenURI",
          "type": "string"
        },
        {
          "internalType": "uint256",
          "name": "price",
          "type": "uint256"
        },
        {
          "internalType": "bool",
          "name": "shouldList",
          "type": "bool"
        }
      ],
      "name": "createToken",
      "outputs": [
        {
          "internalType": "uint256",
          "name": "",
          "type": "uint256"
        }
      ],
      "stateMutability": "payable",
      "type": "function"
    },
    {
      "inputs": [
        {
          "internalType": "uint256",
          "name": "tokenId",
          "type": "uint256"
        }
      ],
      "name": "executeSale",
      "outputs": [],
      "stateMutability": "payable",
      "type": "function"
    },
    {
      "inputs": [],
      "name": "getAllNFTs",
      "outputs": [
        {
          "components": [
            {
              "internalType": "uint256",
              "name": "tokenId",
              "type": "uint256"
            },
            {
              "internalType": "address payable",
              "name": "owner",
              "type": "address"
            },
            {
              "internalType": "address payable",
              "name": "seller",
              "type": "address"
            },
            {
              "internalType": "uint256",
              "name": "price",
              "type": "uint256"
            },
            {
              "internalType": "bool",
              "name": "currentlyListed",
              "type": "bool"
            }
          ],
          "internalType": "struct NFTMarketplace.ListedToken[]",
          "name": "",
          "type": "tuple[]"
        }
      ],
      "stateMutability": "view",
      "type": "function"
    },
    {
      "inputs": [
        {
          "internalType": "uint256",
          "name": "tokenId",
          "type": "uint256"
        }
      ],
      "name": "getApproved",
      "outputs": [
        {
          "internalType": "address",
          "name": "",
          "type": "address"
        }
      ],
      "stateMutability": "view",
      "type": "function"
    },
    {
      "inputs": [],
      "name": "getCurrentToken",
      "outputs": [
        {
          "internalType": "uint256",
          "name": "",
          "type": "uint256"
        }
      ],
      "stateMutability": "view",
      "type": "function"
    },
    {
      "inputs": [],
      "name": "getLatestIdToListedToken",
      "outputs": [
        {
          "components": [
            {
              "internalType": "uint256",
              "name": "tokenId",
              "type": "uint256"
            },
            {
              "internalType": "address payable",
              "name": "owner",
              "type": "address"
            },
            {
              "internalType": "address payable",
              "name": "seller",
              "type": "address"
            },
            {
              "internalType": "uint256",
              "name": "price",
              "type": "uint256"
            },
            {
              "internalType": "bool",
              "name": "currentlyListed",
              "type": "bool"
            }
          ],
          "internalType": "struct NFTMarketplace.ListedToken",
          "name": "",
          "type": "tuple"
        }
      ],
      "stateMutability": "view",
      "type": "function"
    },
    {
      "inputs": [],
      "name": "getListPrice",
      "outputs": [
        {
          "internalType": "uint256",
          "name": "",
          "type": "uint256"
        }
      ],
      "stateMutability": "view",
      "type": "function"
    },
    {
      "inputs": [
        {
          "internalType": "uint256",
          "name": "tokenId",
          "type": "uint256"
        }
      ],
      "name": "getListedTokenForId",
      "outputs": [
        {
          "components": [
            {
              "internalType": "uint256",
              "name": "tokenId",
              "type": "uint256"
            },
            {
              "internalType": "address payable",
              "name": "owner",
              "type": "address"
            },
            {
              "internalType": "address payable",
              "name": "seller",
              "type": "address"
            },
            {
              "internalType": "uint256",
              "name": "price",
              "type": "uint256"
            },
            {
              "internalType": "bool",
              "name": "currentlyListed",
              "type": "bool"
            }
          ],
          "internalType": "struct NFTMarketplace.ListedToken",
          "name": "",
          "type": "tuple"
        }
      ],
      "stateMutability": "view",
      "type": "function"
    },
    {
      "inputs": [],
      "name": "getMintPrice",
      "outputs": [
        {
          "internalType": "uint256",
          "name": "",
          "type": "uint256"
        }
      ],
      "stateMutability": "view",
      "type": "function"
    },
    {
      "inputs": [],
      "name": "getMyNFTs",
      "outputs": [
        {
          "components": [
            {
              "internalType": "uint256",
              "name": "tokenId",
              "type": "uint256"
            },
            {
              "internalType": "address payable",
              "name": "owner",
              "type": "address"
            },
            {
              "internalType": "address payable",
              "name": "seller",
              "type": "address"
            },
            {
              "internalType": "uint256",
              "name": "price",
              "type": "uint256"
            },
            {
              "internalType": "bool",
              "name": "currentlyListed",
              "type": "bool"
            }
          ],
          "internalType": "struct NFTMarketplace.ListedToken[]",
          "name": "",
          "type": "tuple[]"
        }
      ],
      "stateMutability": "view",
      "type": "function"
    },
    {
      "inputs": [
        {
          "internalType": "address",
          "name": "owner",
          "type": "address"
        },
        {
          "internalType": "address",
          "name": "operator",
          "type": "address"
        }
      ],
      "name": "isApprovedForAll",
      "outputs": [
        {
          "internalType": "bool",
          "name": "",
          "type": "bool"
        }
      ],
      "stateMutability": "view",
      "type": "function"
    },
    {
      "inputs": [],
      "name": "name",
      "outputs": [
        {
          "internalType": "string",
          "name": "",
          "type": "string"
        }
      ],
      "stateMutability": "view",
      "type": "function"
    },
    {
      "inputs": [
        {
          "internalType": "uint256",
          "name": "tokenId",
          "type": "uint256"
        }
      ],
      "name": "ownerOf",
      "outputs": [
        {
          "internalType": "address",
          "name": "",
          "type": "address"
        }
      ],
      "stateMutability": "view",
      "type": "function"
    },
    {
      "inputs": [
        {
          "internalType": "address",
          "name": "from",
          "type": "address"
        },
        {
          "internalType": "address",
          "name": "to",
          "type": "address"
        },
        {
          "internalType": "uint256",
          "name": "tokenId",
          "type": "uint256"
        }
      ],
      "name": "safeTransferFrom",
      "outputs": [],
      "stateMutability": "nonpayable",
      "type": "function"
    },
    {
      "inputs": [
        {
          "internalType": "address",
          "name": "from",
          "type": "address"
        },
        {
          "internalType": "address",
          "name": "to",
          "type": "address"
        },
        {
          "internalType": "uint256",
          "name": "tokenId",
          "type": "uint256"
        },
        {
          "internalType": "bytes",
          "name": "data",
          "type": "bytes"
        }
      ],
      "name": "safeTransferFrom",
      "outputs": [],
      "stateMutability": "nonpayable",
      "type": "function"
    },
    {
      "inputs": [
        {
          "internalType": "address",
          "name": "operator",
          "type": "address"
        },
        {
          "internalType": "bool",
          "name": "approved",
          "type": "bool"
        }
      ],
      "name": "setApprovalForAll",
      "outputs": [],
      "stateMutability": "nonpayable",
      "type": "function"
    },
    {
      "inputs": [
        {
          "internalType": "bytes4",
          "name": "interfaceId",
          "type": "bytes4"
        }
      ],
      "name": "supportsInterface",
      "outputs": [
        {
          "internalType": "bool",
          "name": "",
          "type": "bool"
        }
      ],
      "stateMutability": "view",
      "type": "function"
    },
    {
      "inputs": [],
      "name": "symbol",
      "outputs": [
        {
          "internalType": "string",
          "name": "",
          "type": "string"
        }
      ],
      "stateMutability": "view",
      "type": "function"
    },
    {
      "inputs": [
        {
          "internalType": "uint256",
          "name": "tokenId",
          "type": "uint256"
        }
      ],
      "name": "tokenURI",
      "outputs": [
        {
          "internalType": "string",
          "name": "",
          "type": "string"
        }
      ],
      "stateMutability": "view",
      "type": "function"
    },
    {
      "inputs": [
        {
          "internalType": "address",
          "name": "from",
          "type": "address"
        },
        {
          "internalType": "address",
          "name": "to",
          "type": "address"
        },
        {
          "internalType": "uint256",
          "name": "tokenId",
          "type": "uint256"
        }
      ],
      "name": "transferFrom",
      "outputs": [],
      "stateMutability": "nonpayable",
      "type": "function"
    },
    {
      "inputs": [
        {
          "internalType": "uint256",
          "name": "_listPrice",
          "type": "uint256"
        }
      ],
      "name": "updateListPrice",
      "outputs": [],
      "stateMutability": "payable",
      "type": "function"
    }
  ],
  "transactionHash": "0x8e7bf822660415f68d4400db4b6bac172b3a37eeb4ce64f465893c0285f79621",
  "args": [],
  "numDeployments": 3,
  "solcInputHash": "88f317d7541a22ac4b4cc943c2bacaf5",
  "bytecode": "0x608060405266470de4df820000600a55662386f26fc10000600b553480156200002757600080fd5b506040518060400160405280600f81526020017f4f70656e42616c74696361204e465400000000000000000000000000000000008152506040518060400160405280601781526020017f4f70656e42616c7469636120436f6c6c656374696f6e730000000000000000008152508160009080519060200190620000ac9291906200010f565b508060019080519060200190620000c59291906200010f565b50505033600960006101000a81548173ffffffffffffffffffffffffffffffffffffffff021916908373ffffffffffffffffffffffffffffffffffffffff16021790555062000224565b8280546200011d90620001ee565b90600052602060002090601f0160209004810192826200014157600085556200018d565b82601f106200015c57805160ff19168380011785556200018d565b828001600101855582156200018d579182015b828111156200018c5782518255916020019190600101906200016f565b5b5090506200019c9190620001a0565b5090565b5b80821115620001bb576000816000905550600101620001a1565b5090565b7f4e487b7100000000000000000000000000000000000000000000000000000000600052602260045260246000fd5b600060028204905060018216806200020757607f821691505b602082108114156200021e576200021d620001bf565b5b50919050565b613eb180620002346000396000f3fe6080604052600436106101405760003560e01c806395d89b41116100b6578063c87b56dd1161006f578063c87b56dd14610452578063d1a88ae51461048f578063e0391b09146104ba578063e985e9c5146104e5578063ef2d174614610522578063fe97b82e1461054d57610140565b806395d89b41146103725780639b1225c41461039d578063a22cb465146103b9578063a7f93ebd146103e2578063b88d4fde1461040d578063c322579c1461043657610140565b806342842e0e1161010857806342842e0e1461023c578063629cb2e4146102655780636352211e1461029057806368f1945f146102cd57806370a08231146102f85780638e2645901461033557610140565b806301ffc9a71461014557806306fdde0314610182578063081812fc146101ad578063095ea7b3146101ea57806323b872dd14610213575b600080fd5b34801561015157600080fd5b5061016c60048036038101906101679190612a7c565b61057d565b6040516101799190612ac4565b60405180910390f35b34801561018e57600080fd5b506101976105de565b6040516101a49190612b78565b60405180910390f35b3480156101b957600080fd5b506101d460048036038101906101cf9190612bd0565b610670565b6040516101e19190612c3e565b60405180910390f35b3480156101f657600080fd5b50610211600480360381019061020c9190612c85565b6106b6565b005b34801561021f57600080fd5b5061023a60048036038101906102359190612cc5565b6107ce565b005b34801561024857600080fd5b50610263600480360381019061025e9190612cc5565b61082e565b005b34801561027157600080fd5b5061027a61084e565b6040516102879190612e6e565b60405180910390f35b34801561029c57600080fd5b506102b760048036038101906102b29190612bd0565b610c2f565b6040516102c49190612c3e565b60405180910390f35b3480156102d957600080fd5b506102e2610cb6565b6040516102ef9190612e9f565b60405180910390f35b34801561030457600080fd5b5061031f600480360381019061031a9190612eba565b610cc0565b60405161032c9190612e9f565b60405180910390f35b34801561034157600080fd5b5061035c60048036038101906103579190612bd0565b610d78565b6040516103699190612f4f565b60405180910390f35b34801561037e57600080fd5b50610387610e80565b6040516103949190612b78565b60405180910390f35b6103b760048036038101906103b29190612bd0565b610f12565b005b3480156103c557600080fd5b506103e060048036038101906103db9190612f96565b611104565b005b3480156103ee57600080fd5b506103f761111a565b6040516104049190612e9f565b60405180910390f35b34801561041957600080fd5b50610434600480360381019061042f919061310b565b611124565b005b610450600480360381019061044b9190612bd0565b611186565b005b34801561045e57600080fd5b5061047960048036038101906104749190612bd0565b611220565b6040516104869190612b78565b60405180910390f35b34801561049b57600080fd5b506104a4611333565b6040516104b19190612f4f565b60405180910390f35b3480156104c657600080fd5b506104cf611448565b6040516104dc9190612e6e565b60405180910390f35b3480156104f157600080fd5b5061050c6004803603810190610507919061318e565b61161a565b6040516105199190612ac4565b60405180910390f35b34801561052e57600080fd5b506105376116ae565b6040516105449190612e9f565b60405180910390f35b6105676004803603810190610562919061326f565b6116bf565b6040516105749190612e9f565b60405180910390f35b6000634906490660e01b7bffffffffffffffffffffffffffffffffffffffffffffffffffffffff1916827bffffffffffffffffffffffffffffffffffffffffffffffffffffffff191614806105d757506105d682611709565b5b9050919050565b6060600080546105ed9061330d565b80601f01602080910402602001604051908101604052809291908181526020018280546106199061330d565b80156106665780601f1061063b57610100808354040283529160200191610666565b820191906000526020600020905b81548152906001019060200180831161064957829003601f168201915b5050505050905090565b600061067b826117eb565b6004600083815260200190815260200160002060009054906101000a900473ffffffffffffffffffffffffffffffffffffffff169050919050565b60006106c182610c2f565b90508073ffffffffffffffffffffffffffffffffffffffff168373ffffffffffffffffffffffffffffffffffffffff161415610732576040517f08c379a0000000000000000000000000000000000000000000000000000000008152600401610729906133b1565b60405180910390fd5b8073ffffffffffffffffffffffffffffffffffffffff16610751611836565b73ffffffffffffffffffffffffffffffffffffffff161480610780575061077f8161077a611836565b61161a565b5b6107bf576040517f08c379a00000000000000000000000000000000000000000000000000000000081526004016107b690613443565b60405180910390fd5b6107c9838361183e565b505050565b6107df6107d9611836565b826118f7565b61081e576040517f08c379a0000000000000000000000000000000000000000000000000000000008152600401610815906134d5565b60405180910390fd5b61082983838361198c565b505050565b61084983838360405180602001604052806000815250611124565b505050565b6060600061085c6007611c86565b9050600080600080600090505b84811015610982573373ffffffffffffffffffffffffffffffffffffffff16600c60006001846108999190613524565b815260200190815260200160002060010160009054906101000a900473ffffffffffffffffffffffffffffffffffffffff1673ffffffffffffffffffffffffffffffffffffffff16148061095a57503373ffffffffffffffffffffffffffffffffffffffff16600c60006001846109109190613524565b815260200190815260200160002060020160009054906101000a900473ffffffffffffffffffffffffffffffffffffffff1673ffffffffffffffffffffffffffffffffffffffff16145b1561096f5760018461096c9190613524565b93505b808061097a9061357a565b915050610869565b5060008367ffffffffffffffff81111561099f5761099e612fe0565b5b6040519080825280602002602001820160405280156109d857816020015b6109c5612910565b8152602001906001900390816109bd5790505b50905060005b85811015610c23573373ffffffffffffffffffffffffffffffffffffffff16600c6000600184610a0e9190613524565b815260200190815260200160002060010160009054906101000a900473ffffffffffffffffffffffffffffffffffffffff1673ffffffffffffffffffffffffffffffffffffffff161480610acf57503373ffffffffffffffffffffffffffffffffffffffff16600c6000600184610a859190613524565b815260200190815260200160002060020160009054906101000a900473ffffffffffffffffffffffffffffffffffffffff1673ffffffffffffffffffffffffffffffffffffffff16145b15610c1057600181610ae19190613524565b92506000600c60008581526020019081526020016000209050806040518060a0016040529081600082015481526020016001820160009054906101000a900473ffffffffffffffffffffffffffffffffffffffff1673ffffffffffffffffffffffffffffffffffffffff1673ffffffffffffffffffffffffffffffffffffffff1681526020016002820160009054906101000a900473ffffffffffffffffffffffffffffffffffffffff1673ffffffffffffffffffffffffffffffffffffffff1673ffffffffffffffffffffffffffffffffffffffff168152602001600382015481526020016004820160009054906101000a900460ff161515151581525050838681518110610bf457610bf36135c3565b5b6020026020010181905250600185610c0c9190613524565b9450505b8080610c1b9061357a565b9150506109de565b50809550505050505090565b600080610c3b83611c94565b9050600073ffffffffffffffffffffffffffffffffffffffff168173ffffffffffffffffffffffffffffffffffffffff161415610cad576040517f08c379a0000000000000000000000000000000000000000000000000000000008152600401610ca49061363e565b60405180910390fd5b80915050919050565b6000600a54905090565b60008073ffffffffffffffffffffffffffffffffffffffff168273ffffffffffffffffffffffffffffffffffffffff161415610d31576040517f08c379a0000000000000000000000000000000000000000000000000000000008152600401610d28906136d0565b60405180910390fd5b600360008373ffffffffffffffffffffffffffffffffffffffff1673ffffffffffffffffffffffffffffffffffffffff168152602001908152602001600020549050919050565b610d80612910565b600c60008381526020019081526020016000206040518060a0016040529081600082015481526020016001820160009054906101000a900473ffffffffffffffffffffffffffffffffffffffff1673ffffffffffffffffffffffffffffffffffffffff1673ffffffffffffffffffffffffffffffffffffffff1681526020016002820160009054906101000a900473ffffffffffffffffffffffffffffffffffffffff1673ffffffffffffffffffffffffffffffffffffffff1673ffffffffffffffffffffffffffffffffffffffff168152602001600382015481526020016004820160009054906101000a900460ff1615151515815250509050919050565b606060018054610e8f9061330d565b80601f0160208091040260200160405190810160405280929190818152602001828054610ebb9061330d565b8015610f085780601f10610edd57610100808354040283529160200191610f08565b820191906000526020600020905b815481529060010190602001808311610eeb57829003601f168201915b5050505050905090565b6000600c60008381526020019081526020016000206003015490506000600c600084815260200190815260200160002060020160009054906101000a900473ffffffffffffffffffffffffffffffffffffffff169050813414610faa576040517f08c379a0000000000000000000000000000000000000000000000000000000008152600401610fa190613762565b60405180910390fd5b6001600c600085815260200190815260200160002060040160006101000a81548160ff02191690831515021790555033600c600085815260200190815260200160002060020160006101000a81548173ffffffffffffffffffffffffffffffffffffffff021916908373ffffffffffffffffffffffffffffffffffffffff1602179055506110386008611cd1565b61104330338561198c565b61104d30846106b6565b600960009054906101000a900473ffffffffffffffffffffffffffffffffffffffff1673ffffffffffffffffffffffffffffffffffffffff166108fc600a549081150290604051600060405180830381858888f193505050501580156110b7573d6000803e3d6000fd5b508073ffffffffffffffffffffffffffffffffffffffff166108fc349081150290604051600060405180830381858888f193505050501580156110fe573d6000803e3d6000fd5b50505050565b61111661110f611836565b8383611ce7565b5050565b6000600b54905090565b61113561112f611836565b836118f7565b611174576040517f08c379a000000000000000000000000000000000000000000000000000000000815260040161116b906134d5565b60405180910390fd5b61118084848484611e54565b50505050565b3373ffffffffffffffffffffffffffffffffffffffff16600960009054906101000a900473ffffffffffffffffffffffffffffffffffffffff1673ffffffffffffffffffffffffffffffffffffffff1614611216576040517f08c379a000000000000000000000000000000000000000000000000000000000815260040161120d906137f4565b60405180910390fd5b80600a8190555050565b606061122b826117eb565b600060066000848152602001908152602001600020805461124b9061330d565b80601f01602080910402602001604051908101604052809291908181526020018280546112779061330d565b80156112c45780601f10611299576101008083540402835291602001916112c4565b820191906000526020600020905b8154815290600101906020018083116112a757829003601f168201915b5050505050905060006112d5611eb0565b90506000815114156112eb57819250505061132e565b600082511115611320578082604051602001611308929190613850565b6040516020818303038152906040529250505061132e565b61132984611ec7565b925050505b919050565b61133b612910565b60006113476007611c86565b9050600c60008281526020019081526020016000206040518060a0016040529081600082015481526020016001820160009054906101000a900473ffffffffffffffffffffffffffffffffffffffff1673ffffffffffffffffffffffffffffffffffffffff1673ffffffffffffffffffffffffffffffffffffffff1681526020016002820160009054906101000a900473ffffffffffffffffffffffffffffffffffffffff1673ffffffffffffffffffffffffffffffffffffffff1673ffffffffffffffffffffffffffffffffffffffff168152602001600382015481526020016004820160009054906101000a900460ff16151515158152505091505090565b606060006114566007611c86565b905060008167ffffffffffffffff81111561147457611473612fe0565b5b6040519080825280602002602001820160405280156114ad57816020015b61149a612910565b8152602001906001900390816114925790505b50905060008080600090505b8481101561160f576001816114ce9190613524565b91506000600c60008481526020019081526020016000209050806040518060a0016040529081600082015481526020016001820160009054906101000a900473ffffffffffffffffffffffffffffffffffffffff1673ffffffffffffffffffffffffffffffffffffffff1673ffffffffffffffffffffffffffffffffffffffff1681526020016002820160009054906101000a900473ffffffffffffffffffffffffffffffffffffffff1673ffffffffffffffffffffffffffffffffffffffff1673ffffffffffffffffffffffffffffffffffffffff168152602001600382015481526020016004820160009054906101000a900460ff1615151515815250508585815181106115e1576115e06135c3565b5b60200260200101819052506001846115f99190613524565b93505080806116079061357a565b9150506114b9565b508294505050505090565b6000600560008473ffffffffffffffffffffffffffffffffffffffff1673ffffffffffffffffffffffffffffffffffffffff16815260200190815260200160002060008373ffffffffffffffffffffffffffffffffffffffff1673ffffffffffffffffffffffffffffffffffffffff16815260200190815260200160002060009054906101000a900460ff16905092915050565b60006116ba6007611c86565b905090565b60006116cb6007611cd1565b60006116d76007611c86565b90506116e33382611f2f565b6116ed8186611f4d565b82156116fe576116fd8185611ff8565b5b809150509392505050565b60007f80ac58cd000000000000000000000000000000000000000000000000000000007bffffffffffffffffffffffffffffffffffffffffffffffffffffffff1916827bffffffffffffffffffffffffffffffffffffffffffffffffffffffff191614806117d457507f5b5e139f000000000000000000000000000000000000000000000000000000007bffffffffffffffffffffffffffffffffffffffffffffffffffffffff1916827bffffffffffffffffffffffffffffffffffffffffffffffffffffffff1916145b806117e457506117e3826121fb565b5b9050919050565b6117f481612265565b611833576040517f08c379a000000000000000000000000000000000000000000000000000000000815260040161182a9061363e565b60405180910390fd5b50565b600033905090565b816004600083815260200190815260200160002060006101000a81548173ffffffffffffffffffffffffffffffffffffffff021916908373ffffffffffffffffffffffffffffffffffffffff160217905550808273ffffffffffffffffffffffffffffffffffffffff166118b183610c2f565b73ffffffffffffffffffffffffffffffffffffffff167f8c5be1e5ebec7d5bd14f71427d1e84f3dd0314c0f7b2291e5b200ac8c7c3b92560405160405180910390a45050565b60008061190383610c2f565b90508073ffffffffffffffffffffffffffffffffffffffff168473ffffffffffffffffffffffffffffffffffffffff1614806119455750611944818561161a565b5b8061198357508373ffffffffffffffffffffffffffffffffffffffff1661196b84610670565b73ffffffffffffffffffffffffffffffffffffffff16145b91505092915050565b8273ffffffffffffffffffffffffffffffffffffffff166119ac82610c2f565b73ffffffffffffffffffffffffffffffffffffffff1614611a02576040517f08c379a00000000000000000000000000000000000000000000000000000000081526004016119f9906138e6565b60405180910390fd5b600073ffffffffffffffffffffffffffffffffffffffff168273ffffffffffffffffffffffffffffffffffffffff161415611a72576040517f08c379a0000000000000000000000000000000000000000000000000000000008152600401611a6990613978565b60405180910390fd5b611a7f83838360016122a6565b8273ffffffffffffffffffffffffffffffffffffffff16611a9f82610c2f565b73ffffffffffffffffffffffffffffffffffffffff1614611af5576040517f08c379a0000000000000000000000000000000000000000000000000000000008152600401611aec906138e6565b60405180910390fd5b6004600082815260200190815260200160002060006101000a81549073ffffffffffffffffffffffffffffffffffffffff02191690556001600360008573ffffffffffffffffffffffffffffffffffffffff1673ffffffffffffffffffffffffffffffffffffffff168152602001908152602001600020600082825403925050819055506001600360008473ffffffffffffffffffffffffffffffffffffffff1673ffffffffffffffffffffffffffffffffffffffff16815260200190815260200160002060008282540192505081905550816002600083815260200190815260200160002060006101000a81548173ffffffffffffffffffffffffffffffffffffffff021916908373ffffffffffffffffffffffffffffffffffffffff160217905550808273ffffffffffffffffffffffffffffffffffffffff168473ffffffffffffffffffffffffffffffffffffffff167fddf252ad1be2c89b69c2b068fc378daa952ba7f163c4a11628f55a4df523b3ef60405160405180910390a4611c8183838360016122ac565b505050565b600081600001549050919050565b60006002600083815260200190815260200160002060009054906101000a900473ffffffffffffffffffffffffffffffffffffffff169050919050565b6001816000016000828254019250508190555050565b8173ffffffffffffffffffffffffffffffffffffffff168373ffffffffffffffffffffffffffffffffffffffff161415611d56576040517f08c379a0000000000000000000000000000000000000000000000000000000008152600401611d4d906139e4565b60405180910390fd5b80600560008573ffffffffffffffffffffffffffffffffffffffff1673ffffffffffffffffffffffffffffffffffffffff16815260200190815260200160002060008473ffffffffffffffffffffffffffffffffffffffff1673ffffffffffffffffffffffffffffffffffffffff16815260200190815260200160002060006101000a81548160ff0219169083151502179055508173ffffffffffffffffffffffffffffffffffffffff168373ffffffffffffffffffffffffffffffffffffffff167f17307eab39ab6107e8899845ad3d59bd9653f200f220920489ca2b5937696c3183604051611e479190612ac4565b60405180910390a3505050565b611e5f84848461198c565b611e6b848484846122b2565b611eaa576040517f08c379a0000000000000000000000000000000000000000000000000000000008152600401611ea190613a76565b60405180910390fd5b50505050565b606060405180602001604052806000815250905090565b6060611ed2826117eb565b6000611edc611eb0565b90506000815111611efc5760405180602001604052806000815250611f27565b80611f0684612449565b604051602001611f17929190613850565b6040516020818303038152906040525b915050919050565b611f49828260405180602001604052806000815250612521565b5050565b611f5682612265565b611f95576040517f08c379a0000000000000000000000000000000000000000000000000000000008152600401611f8c90613b08565b60405180910390fd5b80600660008481526020019081526020016000209080519060200190611fbc92919061296d565b507ff8e1a15aba9398e019f0b49df1a4fde98ee17ae345cb5f6b5e2c27f5033e8ce782604051611fec9190612e9f565b60405180910390a15050565b600a54341461203c576040517f08c379a000000000000000000000000000000000000000000000000000000000815260040161203390613b9a565b60405180910390fd5b6000811161207f576040517f08c379a000000000000000000000000000000000000000000000000000000000815260040161207690613c2c565b60405180910390fd5b6040518060a001604052808381526020013073ffffffffffffffffffffffffffffffffffffffff1681526020013373ffffffffffffffffffffffffffffffffffffffff16815260200182815260200160011515815250600c60008481526020019081526020016000206000820151816000015560208201518160010160006101000a81548173ffffffffffffffffffffffffffffffffffffffff021916908373ffffffffffffffffffffffffffffffffffffffff16021790555060408201518160020160006101000a81548173ffffffffffffffffffffffffffffffffffffffff021916908373ffffffffffffffffffffffffffffffffffffffff1602179055506060820151816003015560808201518160040160006101000a81548160ff0219169083151502179055509050506121b833308461198c565b817f9339409317fd01fabff48b703019016f49159bacc801ae872d2ca637d226e4c030338460016040516121ef9493929190613c4c565b60405180910390a25050565b60007f01ffc9a7000000000000000000000000000000000000000000000000000000007bffffffffffffffffffffffffffffffffffffffffffffffffffffffff1916827bffffffffffffffffffffffffffffffffffffffffffffffffffffffff1916149050919050565b60008073ffffffffffffffffffffffffffffffffffffffff1661228783611c94565b73ffffffffffffffffffffffffffffffffffffffff1614159050919050565b50505050565b50505050565b60006122d38473ffffffffffffffffffffffffffffffffffffffff1661257c565b1561243c578373ffffffffffffffffffffffffffffffffffffffff1663150b7a026122fc611836565b8786866040518563ffffffff1660e01b815260040161231e9493929190613ce6565b602060405180830381600087803b15801561233857600080fd5b505af192505050801561236957506040513d601f19601f820116820180604052508101906123669190613d47565b60015b6123ec573d8060008114612399576040519150601f19603f3d011682016040523d82523d6000602084013e61239e565b606091505b506000815114156123e4576040517f08c379a00000000000000000000000000000000000000000000000000000000081526004016123db90613a76565b60405180910390fd5b805181602001fd5b63150b7a0260e01b7bffffffffffffffffffffffffffffffffffffffffffffffffffffffff1916817bffffffffffffffffffffffffffffffffffffffffffffffffffffffff191614915050612441565b600190505b949350505050565b6060600060016124588461259f565b01905060008167ffffffffffffffff81111561247757612476612fe0565b5b6040519080825280601f01601f1916602001820160405280156124a95781602001600182028036833780820191505090505b509050600082602001820190505b600115612516578080600190039150507f3031323334353637383961626364656600000000000000000000000000000000600a86061a8153600a8581612500576124ff613d74565b5b049450600085141561251157612516565b6124b7565b819350505050919050565b61252b83836126f2565b61253860008484846122b2565b612577576040517f08c379a000000000000000000000000000000000000000000000000000000000815260040161256e90613a76565b60405180910390fd5b505050565b6000808273ffffffffffffffffffffffffffffffffffffffff163b119050919050565b600080600090507a184f03e93ff9f4daa797ed6e38ed64bf6a1f01000000000000000083106125fd577a184f03e93ff9f4daa797ed6e38ed64bf6a1f01000000000000000083816125f3576125f2613d74565b5b0492506040810190505b6d04ee2d6d415b85acef8100000000831061263a576d04ee2d6d415b85acef810000000083816126305761262f613d74565b5b0492506020810190505b662386f26fc10000831061266957662386f26fc10000838161265f5761265e613d74565b5b0492506010810190505b6305f5e1008310612692576305f5e100838161268857612687613d74565b5b0492506008810190505b61271083106126b75761271083816126ad576126ac613d74565b5b0492506004810190505b606483106126da57606483816126d0576126cf613d74565b5b0492506002810190505b600a83106126e9576001810190505b80915050919050565b600073ffffffffffffffffffffffffffffffffffffffff168273ffffffffffffffffffffffffffffffffffffffff161415612762576040517f08c379a000000000000000000000000000000000000000000000000000000000815260040161275990613def565b60405180910390fd5b61276b81612265565b156127ab576040517f08c379a00000000000000000000000000000000000000000000000000000000081526004016127a290613e5b565b60405180910390fd5b6127b96000838360016122a6565b6127c281612265565b15612802576040517f08c379a00000000000000000000000000000000000000000000000000000000081526004016127f990613e5b565b60405180910390fd5b6001600360008473ffffffffffffffffffffffffffffffffffffffff1673ffffffffffffffffffffffffffffffffffffffff16815260200190815260200160002060008282540192505081905550816002600083815260200190815260200160002060006101000a81548173ffffffffffffffffffffffffffffffffffffffff021916908373ffffffffffffffffffffffffffffffffffffffff160217905550808273ffffffffffffffffffffffffffffffffffffffff16600073ffffffffffffffffffffffffffffffffffffffff167fddf252ad1be2c89b69c2b068fc378daa952ba7f163c4a11628f55a4df523b3ef60405160405180910390a461290c6000838360016122ac565b5050565b6040518060a0016040528060008152602001600073ffffffffffffffffffffffffffffffffffffffff168152602001600073ffffffffffffffffffffffffffffffffffffffff168152602001600081526020016000151581525090565b8280546129799061330d565b90600052602060002090601f01602090048101928261299b57600085556129e2565b82601f106129b457805160ff19168380011785556129e2565b828001600101855582156129e2579182015b828111156129e15782518255916020019190600101906129c6565b5b5090506129ef91906129f3565b5090565b5b80821115612a0c5760008160009055506001016129f4565b5090565b6000604051905090565b600080fd5b600080fd5b60007fffffffff0000000000000000000000000000000000000000000000000000000082169050919050565b612a5981612a24565b8114612a6457600080fd5b50565b600081359050612a7681612a50565b92915050565b600060208284031215612a9257612a91612a1a565b5b6000612aa084828501612a67565b91505092915050565b60008115159050919050565b612abe81612aa9565b82525050565b6000602082019050612ad96000830184612ab5565b92915050565b600081519050919050565b600082825260208201905092915050565b60005b83811015612b19578082015181840152602081019050612afe565b83811115612b28576000848401525b50505050565b6000601f19601f8301169050919050565b6000612b4a82612adf565b612b548185612aea565b9350612b64818560208601612afb565b612b6d81612b2e565b840191505092915050565b60006020820190508181036000830152612b928184612b3f565b905092915050565b6000819050919050565b612bad81612b9a565b8114612bb857600080fd5b50565b600081359050612bca81612ba4565b92915050565b600060208284031215612be657612be5612a1a565b5b6000612bf484828501612bbb565b91505092915050565b600073ffffffffffffffffffffffffffffffffffffffff82169050919050565b6000612c2882612bfd565b9050919050565b612c3881612c1d565b82525050565b6000602082019050612c536000830184612c2f565b92915050565b612c6281612c1d565b8114612c6d57600080fd5b50565b600081359050612c7f81612c59565b92915050565b60008060408385031215612c9c57612c9b612a1a565b5b6000612caa85828601612c70565b9250506020612cbb85828601612bbb565b9150509250929050565b600080600060608486031215612cde57612cdd612a1a565b5b6000612cec86828701612c70565b9350506020612cfd86828701612c70565b9250506040612d0e86828701612bbb565b9150509250925092565b600081519050919050565b600082825260208201905092915050565b6000819050602082019050919050565b612d4d81612b9a565b82525050565b6000612d5e82612bfd565b9050919050565b612d6e81612d53565b82525050565b612d7d81612aa9565b82525050565b60a082016000820151612d996000850182612d44565b506020820151612dac6020850182612d65565b506040820151612dbf6040850182612d65565b506060820151612dd26060850182612d44565b506080820151612de56080850182612d74565b50505050565b6000612df78383612d83565b60a08301905092915050565b6000602082019050919050565b6000612e1b82612d18565b612e258185612d23565b9350612e3083612d34565b8060005b83811015612e61578151612e488882612deb565b9750612e5383612e03565b925050600181019050612e34565b5085935050505092915050565b60006020820190508181036000830152612e888184612e10565b905092915050565b612e9981612b9a565b82525050565b6000602082019050612eb46000830184612e90565b92915050565b600060208284031215612ed057612ecf612a1a565b5b6000612ede84828501612c70565b91505092915050565b60a082016000820151612efd6000850182612d44565b506020820151612f106020850182612d65565b506040820151612f236040850182612d65565b506060820151612f366060850182612d44565b506080820151612f496080850182612d74565b50505050565b600060a082019050612f646000830184612ee7565b92915050565b612f7381612aa9565b8114612f7e57600080fd5b50565b600081359050612f9081612f6a565b92915050565b60008060408385031215612fad57612fac612a1a565b5b6000612fbb85828601612c70565b9250506020612fcc85828601612f81565b9150509250929050565b600080fd5b600080fd5b7f4e487b7100000000000000000000000000000000000000000000000000000000600052604160045260246000fd5b61301882612b2e565b810181811067ffffffffffffffff8211171561303757613036612fe0565b5b80604052505050565b600061304a612a10565b9050613056828261300f565b919050565b600067ffffffffffffffff82111561307657613075612fe0565b5b61307f82612b2e565b9050602081019050919050565b82818337600083830152505050565b60006130ae6130a98461305b565b613040565b9050828152602081018484840111156130ca576130c9612fdb565b5b6130d584828561308c565b509392505050565b600082601f8301126130f2576130f1612fd6565b5b813561310284826020860161309b565b91505092915050565b6000806000806080858703121561312557613124612a1a565b5b600061313387828801612c70565b945050602061314487828801612c70565b935050604061315587828801612bbb565b925050606085013567ffffffffffffffff81111561317657613175612a1f565b5b613182878288016130dd565b91505092959194509250565b600080604083850312156131a5576131a4612a1a565b5b60006131b385828601612c70565b92505060206131c485828601612c70565b9150509250929050565b600067ffffffffffffffff8211156131e9576131e8612fe0565b5b6131f282612b2e565b9050602081019050919050565b600061321261320d846131ce565b613040565b90508281526020810184848401111561322e5761322d612fdb565b5b61323984828561308c565b509392505050565b600082601f83011261325657613255612fd6565b5b81356132668482602086016131ff565b91505092915050565b60008060006060848603121561328857613287612a1a565b5b600084013567ffffffffffffffff8111156132a6576132a5612a1f565b5b6132b286828701613241565b93505060206132c386828701612bbb565b92505060406132d486828701612f81565b9150509250925092565b7f4e487b7100000000000000000000000000000000000000000000000000000000600052602260045260246000fd5b6000600282049050600182168061332557607f821691505b60208210811415613339576133386132de565b5b50919050565b7f4552433732313a20617070726f76616c20746f2063757272656e74206f776e6560008201527f7200000000000000000000000000000000000000000000000000000000000000602082015250565b600061339b602183612aea565b91506133a68261333f565b604082019050919050565b600060208201905081810360008301526133ca8161338e565b9050919050565b7f4552433732313a20617070726f76652063616c6c6572206973206e6f7420746f60008201527f6b656e206f776e6572206f7220617070726f76656420666f7220616c6c000000602082015250565b600061342d603d83612aea565b9150613438826133d1565b604082019050919050565b6000602082019050818103600083015261345c81613420565b9050919050565b7f4552433732313a2063616c6c6572206973206e6f7420746f6b656e206f776e6560008201527f72206f7220617070726f76656400000000000000000000000000000000000000602082015250565b60006134bf602d83612aea565b91506134ca82613463565b604082019050919050565b600060208201905081810360008301526134ee816134b2565b9050919050565b7f4e487b7100000000000000000000000000000000000000000000000000000000600052601160045260246000fd5b600061352f82612b9a565b915061353a83612b9a565b9250827fffffffffffffffffffffffffffffffffffffffffffffffffffffffffffffffff0382111561356f5761356e6134f5565b5b828201905092915050565b600061358582612b9a565b91507fffffffffffffffffffffffffffffffffffffffffffffffffffffffffffffffff8214156135b8576135b76134f5565b5b600182019050919050565b7f4e487b7100000000000000000000000000000000000000000000000000000000600052603260045260246000fd5b7f4552433732313a20696e76616c696420746f6b656e2049440000000000000000600082015250565b6000613628601883612aea565b9150613633826135f2565b602082019050919050565b600060208201905081810360008301526136578161361b565b9050919050565b7f4552433732313a2061646472657373207a65726f206973206e6f74206120766160008201527f6c6964206f776e65720000000000000000000000000000000000000000000000602082015250565b60006136ba602983612aea565b91506136c58261365e565b604082019050919050565b600060208201905081810360008301526136e9816136ad565b9050919050565b7f506c65617365207375626d6974207468652061736b696e67207072696365206960008201527f6e206f7264657220746f20636f6d706c65746520746865207075726368617365602082015250565b600061374c604083612aea565b9150613757826136f0565b604082019050919050565b6000602082019050818103600083015261377b8161373f565b9050919050565b7f4f6e6c79206f776e65722063616e20757064617465206c697374696e6720707260008201527f6963650000000000000000000000000000000000000000000000000000000000602082015250565b60006137de602383612aea565b91506137e982613782565b604082019050919050565b6000602082019050818103600083015261380d816137d1565b9050919050565b600081905092915050565b600061382a82612adf565b6138348185613814565b9350613844818560208601612afb565b80840191505092915050565b600061385c828561381f565b9150613868828461381f565b91508190509392505050565b7f4552433732313a207472616e736665722066726f6d20696e636f72726563742060008201527f6f776e6572000000000000000000000000000000000000000000000000000000602082015250565b60006138d0602583612aea565b91506138db82613874565b604082019050919050565b600060208201905081810360008301526138ff816138c3565b9050919050565b7f4552433732313a207472616e7366657220746f20746865207a65726f2061646460008201527f7265737300000000000000000000000000000000000000000000000000000000602082015250565b6000613962602483612aea565b915061396d82613906565b604082019050919050565b6000602082019050818103600083015261399181613955565b9050919050565b7f4552433732313a20617070726f766520746f2063616c6c657200000000000000600082015250565b60006139ce601983612aea565b91506139d982613998565b602082019050919050565b600060208201905081810360008301526139fd816139c1565b9050919050565b7f4552433732313a207472616e7366657220746f206e6f6e20455243373231526560008201527f63656976657220696d706c656d656e7465720000000000000000000000000000602082015250565b6000613a60603283612aea565b9150613a6b82613a04565b604082019050919050565b60006020820190508181036000830152613a8f81613a53565b9050919050565b7f45524337323155524953746f726167653a2055524920736574206f66206e6f6e60008201527f6578697374656e7420746f6b656e000000000000000000000000000000000000602082015250565b6000613af2602e83612aea565b9150613afd82613a96565b604082019050919050565b60006020820190508181036000830152613b2181613ae5565b9050919050565b7f486f706566756c6c792073656e64696e672074686520636f727265637420707260008201527f6963650000000000000000000000000000000000000000000000000000000000602082015250565b6000613b84602383612aea565b9150613b8f82613b28565b604082019050919050565b60006020820190508181036000830152613bb381613b77565b9050919050565b7f4d616b652073757265207468652070726963652069736e2774206e656761746960008201527f7665000000000000000000000000000000000000000000000000000000000000602082015250565b6000613c16602283612aea565b9150613c2182613bba565b604082019050919050565b60006020820190508181036000830152613c4581613c09565b9050919050565b6000608082019050613c616000830187612c2f565b613c6e6020830186612c2f565b613c7b6040830185612e90565b613c886060830184612ab5565b95945050505050565b600081519050919050565b600082825260208201905092915050565b6000613cb882613c91565b613cc28185613c9c565b9350613cd2818560208601612afb565b613cdb81612b2e565b840191505092915050565b6000608082019050613cfb6000830187612c2f565b613d086020830186612c2f565b613d156040830185612e90565b8181036060830152613d278184613cad565b905095945050505050565b600081519050613d4181612a50565b92915050565b600060208284031215613d5d57613d5c612a1a565b5b6000613d6b84828501613d32565b91505092915050565b7f4e487b7100000000000000000000000000000000000000000000000000000000600052601260045260246000fd5b7f4552433732313a206d696e7420746f20746865207a65726f2061646472657373600082015250565b6000613dd9602083612aea565b9150613de482613da3565b602082019050919050565b60006020820190508181036000830152613e0881613dcc565b9050919050565b7f4552433732313a20746f6b656e20616c7265616479206d696e74656400000000600082015250565b6000613e45601c83612aea565b9150613e5082613e0f565b602082019050919050565b60006020820190508181036000830152613e7481613e38565b905091905056fea264697066735822122013d25df988e6467838f7935ca130df04002d7df415a31e99f5ada0df139c4f3164736f6c63430008080033",
  "devdoc": {
    "kind": "dev",
    "methods": {
      "approve(address,uint256)": {
        "details": "See {IERC721-approve}."
      },
      "balanceOf(address)": {
        "details": "See {IERC721-balanceOf}."
      },
      "getApproved(uint256)": {
        "details": "See {IERC721-getApproved}."
      },
      "isApprovedForAll(address,address)": {
        "details": "See {IERC721-isApprovedForAll}."
      },
      "name()": {
        "details": "See {IERC721Metadata-name}."
      },
      "ownerOf(uint256)": {
        "details": "See {IERC721-ownerOf}."
      },
      "safeTransferFrom(address,address,uint256)": {
        "details": "See {IERC721-safeTransferFrom}."
      },
      "safeTransferFrom(address,address,uint256,bytes)": {
        "details": "See {IERC721-safeTransferFrom}."
      },
      "setApprovalForAll(address,bool)": {
        "details": "See {IERC721-setApprovalForAll}."
      },
      "supportsInterface(bytes4)": {
        "details": "See {IERC165-supportsInterface}"
      },
      "symbol()": {
        "details": "See {IERC721Metadata-symbol}."
      },
      "tokenURI(uint256)": {
        "details": "See {IERC721Metadata-tokenURI}."
      },
      "transferFrom(address,address,uint256)": {
        "details": "See {IERC721-transferFrom}."
      }
    },
    "version": 1
  },
  "userdoc": {
    "kind": "user",
    "methods": {},
    "version": 1
  },
  "storageLayout": {
    "storage": [
      {
        "astId": 53,
        "contract": "contracts/NFTMarketplace.sol:NFTMarketplace",
        "label": "_name",
        "offset": 0,
        "slot": "0",
        "type": "t_string_storage"
      },
      {
        "astId": 55,
        "contract": "contracts/NFTMarketplace.sol:NFTMarketplace",
        "label": "_symbol",
        "offset": 0,
        "slot": "1",
        "type": "t_string_storage"
      },
      {
        "astId": 59,
        "contract": "contracts/NFTMarketplace.sol:NFTMarketplace",
        "label": "_owners",
        "offset": 0,
        "slot": "2",
        "type": "t_mapping(t_uint256,t_address)"
      },
      {
        "astId": 63,
        "contract": "contracts/NFTMarketplace.sol:NFTMarketplace",
        "label": "_balances",
        "offset": 0,
        "slot": "3",
        "type": "t_mapping(t_address,t_uint256)"
      },
      {
        "astId": 67,
        "contract": "contracts/NFTMarketplace.sol:NFTMarketplace",
        "label": "_tokenApprovals",
        "offset": 0,
        "slot": "4",
        "type": "t_mapping(t_uint256,t_address)"
      },
      {
        "astId": 73,
        "contract": "contracts/NFTMarketplace.sol:NFTMarketplace",
        "label": "_operatorApprovals",
        "offset": 0,
        "slot": "5",
        "type": "t_mapping(t_address,t_mapping(t_address,t_bool))"
      },
      {
        "astId": 1104,
        "contract": "contracts/NFTMarketplace.sol:NFTMarketplace",
        "label": "_tokenURIs",
        "offset": 0,
        "slot": "6",
        "type": "t_mapping(t_uint256,t_string_storage)"
      },
      {
        "astId": 2948,
        "contract": "contracts/NFTMarketplace.sol:NFTMarketplace",
        "label": "_tokenIds",
        "offset": 0,
        "slot": "7",
        "type": "t_struct(Counter)1629_storage"
      },
      {
        "astId": 2951,
        "contract": "contracts/NFTMarketplace.sol:NFTMarketplace",
        "label": "_itemsSold",
        "offset": 0,
        "slot": "8",
        "type": "t_struct(Counter)1629_storage"
      },
      {
        "astId": 2953,
        "contract": "contracts/NFTMarketplace.sol:NFTMarketplace",
        "label": "owner",
        "offset": 0,
        "slot": "9",
        "type": "t_address_payable"
      },
      {
        "astId": 2956,
        "contract": "contracts/NFTMarketplace.sol:NFTMarketplace",
        "label": "listPrice",
        "offset": 0,
        "slot": "10",
        "type": "t_uint256"
      },
      {
        "astId": 2959,
        "contract": "contracts/NFTMarketplace.sol:NFTMarketplace",
        "label": "mintPrice",
        "offset": 0,
        "slot": "11",
        "type": "t_uint256"
      },
      {
        "astId": 2987,
        "contract": "contracts/NFTMarketplace.sol:NFTMarketplace",
        "label": "idToListedToken",
        "offset": 0,
        "slot": "12",
        "type": "t_mapping(t_uint256,t_struct(ListedToken)2970_storage)"
      }
    ],
    "types": {
      "t_address": {
        "encoding": "inplace",
        "label": "address",
        "numberOfBytes": "20"
      },
      "t_address_payable": {
        "encoding": "inplace",
        "label": "address payable",
        "numberOfBytes": "20"
      },
      "t_bool": {
        "encoding": "inplace",
        "label": "bool",
        "numberOfBytes": "1"
      },
      "t_mapping(t_address,t_bool)": {
        "encoding": "mapping",
        "key": "t_address",
        "label": "mapping(address => bool)",
        "numberOfBytes": "32",
        "value": "t_bool"
      },
      "t_mapping(t_address,t_mapping(t_address,t_bool))": {
        "encoding": "mapping",
        "key": "t_address",
        "label": "mapping(address => mapping(address => bool))",
        "numberOfBytes": "32",
        "value": "t_mapping(t_address,t_bool)"
      },
      "t_mapping(t_address,t_uint256)": {
        "encoding": "mapping",
        "key": "t_address",
        "label": "mapping(address => uint256)",
        "numberOfBytes": "32",
        "value": "t_uint256"
      },
      "t_mapping(t_uint256,t_address)": {
        "encoding": "mapping",
        "key": "t_uint256",
        "label": "mapping(uint256 => address)",
        "numberOfBytes": "32",
        "value": "t_address"
      },
      "t_mapping(t_uint256,t_string_storage)": {
        "encoding": "mapping",
        "key": "t_uint256",
        "label": "mapping(uint256 => string)",
        "numberOfBytes": "32",
        "value": "t_string_storage"
      },
      "t_mapping(t_uint256,t_struct(ListedToken)2970_storage)": {
        "encoding": "mapping",
        "key": "t_uint256",
        "label": "mapping(uint256 => struct NFTMarketplace.ListedToken)",
        "numberOfBytes": "32",
        "value": "t_struct(ListedToken)2970_storage"
      },
      "t_string_storage": {
        "encoding": "bytes",
        "label": "string",
        "numberOfBytes": "32"
      },
      "t_struct(Counter)1629_storage": {
        "encoding": "inplace",
        "label": "struct Counters.Counter",
        "members": [
          {
            "astId": 1628,
            "contract": "contracts/NFTMarketplace.sol:NFTMarketplace",
            "label": "_value",
            "offset": 0,
            "slot": "0",
            "type": "t_uint256"
          }
        ],
        "numberOfBytes": "32"
      },
      "t_struct(ListedToken)2970_storage": {
        "encoding": "inplace",
        "label": "struct NFTMarketplace.ListedToken",
        "members": [
          {
            "astId": 2961,
            "contract": "contracts/NFTMarketplace.sol:NFTMarketplace",
            "label": "tokenId",
            "offset": 0,
            "slot": "0",
            "type": "t_uint256"
          },
          {
            "astId": 2963,
            "contract": "contracts/NFTMarketplace.sol:NFTMarketplace",
            "label": "owner",
            "offset": 0,
            "slot": "1",
            "type": "t_address_payable"
          },
          {
            "astId": 2965,
            "contract": "contracts/NFTMarketplace.sol:NFTMarketplace",
            "label": "seller",
            "offset": 0,
            "slot": "2",
            "type": "t_address_payable"
          },
          {
            "astId": 2967,
            "contract": "contracts/NFTMarketplace.sol:NFTMarketplace",
            "label": "price",
            "offset": 0,
            "slot": "3",
            "type": "t_uint256"
          },
          {
            "astId": 2969,
            "contract": "contracts/NFTMarketplace.sol:NFTMarketplace",
            "label": "currentlyListed",
            "offset": 0,
            "slot": "4",
            "type": "t_bool"
          }
        ],
        "numberOfBytes": "160"
      },
      "t_uint256": {
        "encoding": "inplace",
        "label": "uint256",
        "numberOfBytes": "32"
      }
    }
  }
}